{
  "_format": "hh-sol-artifact-1",
  "contractName": "UserDeposit",
  "sourceName": "contracts/Send.sol",
  "abi": [
    {
      "anonymous": false,
      "inputs": [
        {
          "indexed": true,
          "internalType": "address",
          "name": "sender",
          "type": "address"
        },
        {
          "indexed": true,
          "internalType": "address",
          "name": "recipient",
          "type": "address"
        },
        {
          "indexed": false,
          "internalType": "uint256",
          "name": "amount",
          "type": "uint256"
        }
      ],
      "name": "EtherSent",
      "type": "event"
    },
    {
      "inputs": [
        {
          "internalType": "uint256",
          "name": "_amount",
          "type": "uint256"
        },
        {
          "internalType": "address",
          "name": "_address",
          "type": "address"
        }
      ],
      "name": "deposit",
      "outputs": [],
      "stateMutability": "nonpayable",
      "type": "function"
    },
    {
      "inputs": [
        {
          "internalType": "address",
          "name": "_address",
          "type": "address"
        }
      ],
      "name": "getBalance",
      "outputs": [
        {
          "internalType": "uint256",
          "name": "",
          "type": "uint256"
        }
      ],
      "stateMutability": "view",
      "type": "function"
    },
    {
      "inputs": [
        {
          "internalType": "address payable",
          "name": "recipient",
          "type": "address"
        }
      ],
      "name": "sendEth",
      "outputs": [],
      "stateMutability": "payable",
      "type": "function"
    }
  ],
  "bytecode": "0x608060405234801561001057600080fd5b506107ab806100206000396000f3fe6080604052600436106100345760003560e01c80636e553f651461003957806376a54c6014610062578063f8b2cb4f1461007e575b600080fd5b34801561004557600080fd5b50610060600480360381019061005b9190610416565b6100bb565b005b61007c60048036038101906100779190610494565b6101fb565b005b34801561008a57600080fd5b506100a560048036038101906100a091906104c1565b61035c565b6040516100b291906104fd565b60405180910390f35b8073ffffffffffffffffffffffffffffffffffffffff166370a08231336040518263ffffffff1660e01b81526004016100f49190610527565b602060405180830381865afa158015610111573d6000803e3d6000fd5b505050506040513d601f19601f820116820180604052508101906101359190610557565b8210610176576040517f08c379a000000000000000000000000000000000000000000000000000000000815260040161016d906105e1565b60405180910390fd5b8073ffffffffffffffffffffffffffffffffffffffff166323b872dd3330856040518463ffffffff1660e01b81526004016101b393929190610601565b6020604051808303816000875af11580156101d2573d6000803e3d6000fd5b505050506040513d601f19601f820116820180604052508101906101f69190610670565b505050565b6000341161023e576040517f08c379a0000000000000000000000000000000000000000000000000000000008152600401610235906106e9565b60405180910390fd5b600073ffffffffffffffffffffffffffffffffffffffff168173ffffffffffffffffffffffffffffffffffffffff16036102ad576040517f08c379a00000000000000000000000000000000000000000000000000000000081526004016102a490610755565b60405180910390fd5b8073ffffffffffffffffffffffffffffffffffffffff166108fc349081150290604051600060405180830381858888f193505050501580156102f3573d6000803e3d6000fd5b508073ffffffffffffffffffffffffffffffffffffffff163373ffffffffffffffffffffffffffffffffffffffff167f10d1a5dc650a65cd6625a330078a13ee62c6ec85b36e94bdf57e4d3188ca67383460405161035191906104fd565b60405180910390a350565b60008173ffffffffffffffffffffffffffffffffffffffff16319050919050565b600080fd5b6000819050919050565b61039581610382565b81146103a057600080fd5b50565b6000813590506103b28161038c565b92915050565b600073ffffffffffffffffffffffffffffffffffffffff82169050919050565b60006103e3826103b8565b9050919050565b6103f3816103d8565b81146103fe57600080fd5b50565b600081359050610410816103ea565b92915050565b6000806040838503121561042d5761042c61037d565b5b600061043b858286016103a3565b925050602061044c85828601610401565b9150509250929050565b6000610461826103b8565b9050919050565b61047181610456565b811461047c57600080fd5b50565b60008135905061048e81610468565b92915050565b6000602082840312156104aa576104a961037d565b5b60006104b88482850161047f565b91505092915050565b6000602082840312156104d7576104d661037d565b5b60006104e584828501610401565b91505092915050565b6104f781610382565b82525050565b600060208201905061051260008301846104ee565b92915050565b610521816103d8565b82525050565b600060208201905061053c6000830184610518565b92915050565b6000815190506105518161038c565b92915050565b60006020828403121561056d5761056c61037d565b5b600061057b84828501610542565b91505092915050565b600082825260208201905092915050565b7f5472616e73616374696f6e204661696c65640000000000000000000000000000600082015250565b60006105cb601283610584565b91506105d682610595565b602082019050919050565b600060208201905081810360008301526105fa816105be565b9050919050565b60006060820190506106166000830186610518565b6106236020830185610518565b61063060408301846104ee565b949350505050565b60008115159050919050565b61064d81610638565b811461065857600080fd5b50565b60008151905061066a81610644565b92915050565b6000602082840312156106865761068561037d565b5b60006106948482850161065b565b91505092915050565b7f416d6f756e74206d7573742062652067726561746572207468616e207a65726f600082015250565b60006106d3602083610584565b91506106de8261069d565b602082019050919050565b60006020820190508181036000830152610702816106c6565b9050919050565b7f496e76616c696420726563697069656e74206164647265737300000000000000600082015250565b600061073f601983610584565b915061074a82610709565b602082019050919050565b6000602082019050818103600083015261076e81610732565b905091905056fea264697066735822122040acf3b2f67e251c661736332bf5456e22da5640706e8fc547bd60bc619d368164736f6c63430008120033",
  "linkReferences": {},
  "deployedLinkReferences": {}
}