{
  "_format": "hh-sol-artifact-1",
  "contractName": "UserDeposit",
  "sourceName": "contracts/Send.sol",
  "abi": [
    {
      "anonymous": false,
      "inputs": [
        {
          "indexed": true,
          "internalType": "address",
          "name": "to",
          "type": "address"
        },
        {
          "indexed": false,
          "internalType": "uint256",
          "name": "amount",
          "type": "uint256"
        }
      ],
      "name": "ETHTransferred",
      "type": "event"
    },
    {
      "anonymous": false,
      "inputs": [
        {
          "indexed": false,
          "internalType": "string",
          "name": "firstName",
          "type": "string"
        },
        {
          "indexed": false,
          "internalType": "string",
          "name": "lastName",
          "type": "string"
        },
        {
          "indexed": false,
          "internalType": "uint256",
          "name": "employeeId",
          "type": "uint256"
        },
        {
          "indexed": false,
          "internalType": "string",
          "name": "email",
          "type": "string"
        },
        {
          "indexed": false,
          "internalType": "string",
          "name": "department",
          "type": "string"
        },
        {
          "indexed": false,
          "internalType": "string",
          "name": "performance",
          "type": "string"
        },
        {
          "indexed": false,
          "internalType": "string",
          "name": "grossSalary",
          "type": "string"
        },
        {
          "indexed": false,
          "internalType": "string",
          "name": "month",
          "type": "string"
        },
        {
          "indexed": false,
          "internalType": "address",
          "name": "walletAddress",
          "type": "address"
        }
      ],
      "name": "EmployeeAdded",
      "type": "event"
    },
    {
      "anonymous": false,
      "inputs": [
        {
          "indexed": true,
          "internalType": "address",
          "name": "sender",
          "type": "address"
        },
        {
          "indexed": true,
          "internalType": "address",
          "name": "recipient",
          "type": "address"
        },
        {
          "indexed": false,
          "internalType": "uint256",
          "name": "amount",
          "type": "uint256"
        }
      ],
      "name": "EtherSent",
      "type": "event"
    },
    {
      "inputs": [
        {
          "internalType": "string",
          "name": "_firstName",
          "type": "string"
        },
        {
          "internalType": "string",
          "name": "_lastName",
          "type": "string"
        },
        {
          "internalType": "uint256",
          "name": "_employeeId",
          "type": "uint256"
        },
        {
          "internalType": "string",
          "name": "_email",
          "type": "string"
        },
        {
          "internalType": "string",
          "name": "_department",
          "type": "string"
        },
        {
          "internalType": "string",
          "name": "_performance",
          "type": "string"
        },
        {
          "internalType": "string",
          "name": "_grossSalary",
          "type": "string"
        },
        {
          "internalType": "string",
          "name": "_month",
          "type": "string"
        },
        {
          "internalType": "address",
          "name": "_walletAddress",
          "type": "address"
        }
      ],
      "name": "addEmployee",
      "outputs": [],
      "stateMutability": "nonpayable",
      "type": "function"
    },
    {
      "inputs": [],
      "name": "clearAllEmployees",
      "outputs": [],
      "stateMutability": "nonpayable",
      "type": "function"
    },
    {
      "inputs": [
        {
          "internalType": "uint256",
          "name": "_amount",
          "type": "uint256"
        },
        {
          "internalType": "address",
          "name": "_address",
          "type": "address"
        }
      ],
      "name": "deposit",
      "outputs": [],
      "stateMutability": "nonpayable",
      "type": "function"
    },
    {
      "inputs": [
        {
          "internalType": "uint256",
          "name": "",
          "type": "uint256"
        }
      ],
      "name": "employee",
      "outputs": [
        {
          "internalType": "string",
          "name": "firstName",
          "type": "string"
        },
        {
          "internalType": "string",
          "name": "lastName",
          "type": "string"
        },
        {
          "internalType": "uint256",
          "name": "employeeId",
          "type": "uint256"
        },
        {
          "internalType": "string",
          "name": "email",
          "type": "string"
        },
        {
          "internalType": "string",
          "name": "department",
          "type": "string"
        },
        {
          "internalType": "string",
          "name": "performance",
          "type": "string"
        },
        {
          "internalType": "string",
          "name": "grossSalary",
          "type": "string"
        },
        {
          "internalType": "string",
          "name": "month",
          "type": "string"
        },
        {
          "internalType": "address",
          "name": "walletAddress",
          "type": "address"
        }
      ],
      "stateMutability": "view",
      "type": "function"
    },
    {
      "inputs": [],
      "name": "employeeCount",
      "outputs": [
        {
          "internalType": "uint256",
          "name": "",
          "type": "uint256"
        }
      ],
      "stateMutability": "view",
      "type": "function"
    },
    {
      "inputs": [
        {
          "internalType": "uint256",
          "name": "",
          "type": "uint256"
        }
      ],
      "name": "employees",
      "outputs": [
        {
          "internalType": "string",
          "name": "firstName",
          "type": "string"
        },
        {
          "internalType": "string",
          "name": "lastName",
          "type": "string"
        },
        {
          "internalType": "uint256",
          "name": "employeeId",
          "type": "uint256"
        },
        {
          "internalType": "string",
          "name": "email",
          "type": "string"
        },
        {
          "internalType": "string",
          "name": "department",
          "type": "string"
        },
        {
          "internalType": "string",
          "name": "performance",
          "type": "string"
        },
        {
          "internalType": "string",
          "name": "grossSalary",
          "type": "string"
        },
        {
          "internalType": "string",
          "name": "month",
          "type": "string"
        },
        {
          "internalType": "address",
          "name": "walletAddress",
          "type": "address"
        }
      ],
      "stateMutability": "view",
      "type": "function"
    },
    {
      "inputs": [],
      "name": "getAllEmployees",
      "outputs": [
        {
          "components": [
            {
              "internalType": "string",
              "name": "firstName",
              "type": "string"
            },
            {
              "internalType": "string",
              "name": "lastName",
              "type": "string"
            },
            {
              "internalType": "uint256",
              "name": "employeeId",
              "type": "uint256"
            },
            {
              "internalType": "string",
              "name": "email",
              "type": "string"
            },
            {
              "internalType": "string",
              "name": "department",
              "type": "string"
            },
            {
              "internalType": "string",
              "name": "performance",
              "type": "string"
            },
            {
              "internalType": "string",
              "name": "grossSalary",
              "type": "string"
            },
            {
              "internalType": "string",
              "name": "month",
              "type": "string"
            },
            {
              "internalType": "address",
              "name": "walletAddress",
              "type": "address"
            }
          ],
          "internalType": "struct UserDeposit.Employee[]",
          "name": "",
          "type": "tuple[]"
        }
      ],
      "stateMutability": "view",
      "type": "function"
    },
    {
      "inputs": [
        {
          "internalType": "address",
          "name": "_address",
          "type": "address"
        }
      ],
      "name": "getBalance",
      "outputs": [
        {
          "internalType": "uint256",
          "name": "",
          "type": "uint256"
        }
      ],
      "stateMutability": "view",
      "type": "function"
    },
    {
      "inputs": [],
      "name": "getEmployeeCount",
      "outputs": [
        {
          "internalType": "uint256",
          "name": "",
          "type": "uint256"
        }
      ],
      "stateMutability": "view",
      "type": "function"
    },
    {
      "inputs": [],
      "name": "sendEtherToAllEmployees",
      "outputs": [],
      "stateMutability": "payable",
      "type": "function"
    }
  ],
  "bytecode": "0x608060405234801561001057600080fd5b50612436806100206000396000f3fe6080604052600436106100915760003560e01c80639047bf58116100595780639047bf581461014e57806399b65f7914610179578063c2a63e3b146101be578063e3366fed146101e9578063f8b2cb4f1461021457610091565b80633eb68794146100965780634739326b146100bf5780636e553f65146101045780637a0f454b1461012d5780637e0e9fe214610137575b600080fd5b3480156100a257600080fd5b506100bd60048036038101906100b891906117b7565b610251565b005b3480156100cb57600080fd5b506100e660048036038101906100e19190611945565b61042b565b6040516100fb99989796959493929190611a0f565b60405180910390f35b34801561011057600080fd5b5061012b60048036038101906101269190611acd565b610851565b005b610135610991565b005b34801561014357600080fd5b5061014c610b57565b005b34801561015a57600080fd5b50610163610b6e565b6040516101709190611b0d565b60405180910390f35b34801561018557600080fd5b506101a0600480360381019061019b9190611945565b610b74565b6040516101b599989796959493929190611a0f565b60405180910390f35b3480156101ca57600080fd5b506101d3610faa565b6040516101e09190611b0d565b60405180910390f35b3480156101f557600080fd5b506101fe610fb3565b60405161020b9190611d41565b60405180910390f35b34801561022057600080fd5b5061023b60048036038101906102369190611d63565b611471565b6040516102489190611b0d565b60405180910390f35b60016000808282546102639190611dbf565b9250508190555060016040518061012001604052808b81526020018a81526020018981526020018881526020018781526020018681526020018581526020018481526020018373ffffffffffffffffffffffffffffffffffffffff16815250908060018154018082558091505060019003906000526020600020906009020160009091909190915060008201518160000190816103009190611fff565b5060208201518160010190816103169190611fff565b506040820151816002015560608201518160030190816103369190611fff565b50608082015181600401908161034c9190611fff565b5060a08201518160050190816103629190611fff565b5060c08201518160060190816103789190611fff565b5060e082015181600701908161038e9190611fff565b506101008201518160080160006101000a81548173ffffffffffffffffffffffffffffffffffffffff021916908373ffffffffffffffffffffffffffffffffffffffff16021790555050507f7db35a6ad7b466ef3587226e2cff698a7720553371b08ab1db41c1da4a79b17189898989898989898960405161041899989796959493929190611a0f565b60405180910390a1505050505050505050565b600260205280600052604060002060009150905080600001805461044e90611e22565b80601f016020809104026020016040519081016040528092919081815260200182805461047a90611e22565b80156104c75780601f1061049c576101008083540402835291602001916104c7565b820191906000526020600020905b8154815290600101906020018083116104aa57829003601f168201915b5050505050908060010180546104dc90611e22565b80601f016020809104026020016040519081016040528092919081815260200182805461050890611e22565b80156105555780601f1061052a57610100808354040283529160200191610555565b820191906000526020600020905b81548152906001019060200180831161053857829003601f168201915b50505050509080600201549080600301805461057090611e22565b80601f016020809104026020016040519081016040528092919081815260200182805461059c90611e22565b80156105e95780601f106105be576101008083540402835291602001916105e9565b820191906000526020600020905b8154815290600101906020018083116105cc57829003601f168201915b5050505050908060040180546105fe90611e22565b80601f016020809104026020016040519081016040528092919081815260200182805461062a90611e22565b80156106775780601f1061064c57610100808354040283529160200191610677565b820191906000526020600020905b81548152906001019060200180831161065a57829003601f168201915b50505050509080600501805461068c90611e22565b80601f01602080910402602001604051908101604052809291908181526020018280546106b890611e22565b80156107055780601f106106da57610100808354040283529160200191610705565b820191906000526020600020905b8154815290600101906020018083116106e857829003601f168201915b50505050509080600601805461071a90611e22565b80601f016020809104026020016040519081016040528092919081815260200182805461074690611e22565b80156107935780601f1061076857610100808354040283529160200191610793565b820191906000526020600020905b81548152906001019060200180831161077657829003601f168201915b5050505050908060070180546107a890611e22565b80601f01602080910402602001604051908101604052809291908181526020018280546107d490611e22565b80156108215780601f106107f657610100808354040283529160200191610821565b820191906000526020600020905b81548152906001019060200180831161080457829003601f168201915b5050505050908060080160009054906101000a900473ffffffffffffffffffffffffffffffffffffffff16905089565b8073ffffffffffffffffffffffffffffffffffffffff166370a08231336040518263ffffffff1660e01b815260040161088a91906120d1565b602060405180830381865afa1580156108a7573d6000803e3d6000fd5b505050506040513d601f19601f820116820180604052508101906108cb9190612101565b821061090c576040517f08c379a00000000000000000000000000000000000000000000000000000000081526004016109039061217a565b60405180910390fd5b8073ffffffffffffffffffffffffffffffffffffffff166323b872dd3330856040518463ffffffff1660e01b81526004016109499392919061219a565b6020604051808303816000875af1158015610968573d6000803e3d6000fd5b505050506040513d601f19601f8201168201806040525081019061098c9190612209565b505050565b60005b600180549050811015610b54576000600182815481106109b7576109b6612236565b5b90600052602060002090600902016006016040516020016109d891906122f3565b6040516020818303038152906040528051906020012060001c670de0b6b3a7640000610a04919061230a565b9050600060018381548110610a1c57610a1b612236565b5b906000526020600020906009020160080160009054906101000a900473ffffffffffffffffffffffffffffffffffffffff16905081341015610a93576040517f08c379a0000000000000000000000000000000000000000000000000000000008152600401610a8a90612398565b60405180910390fd5b8073ffffffffffffffffffffffffffffffffffffffff166108fc839081150290604051600060405180830381858888f19350505050158015610ad9573d6000803e3d6000fd5b508073ffffffffffffffffffffffffffffffffffffffff163073ffffffffffffffffffffffffffffffffffffffff167f10d1a5dc650a65cd6625a330078a13ee62c6ec85b36e94bdf57e4d3188ca673884604051610b379190611b0d565b60405180910390a350508080610b4c906123b8565b915050610994565b50565b60016000610b659190611492565b60008081905550565b60035481565b60018181548110610b8457600080fd5b9060005260206000209060090201600091509050806000018054610ba790611e22565b80601f0160208091040260200160405190810160405280929190818152602001828054610bd390611e22565b8015610c205780601f10610bf557610100808354040283529160200191610c20565b820191906000526020600020905b815481529060010190602001808311610c0357829003601f168201915b505050505090806001018054610c3590611e22565b80601f0160208091040260200160405190810160405280929190818152602001828054610c6190611e22565b8015610cae5780601f10610c8357610100808354040283529160200191610cae565b820191906000526020600020905b815481529060010190602001808311610c9157829003601f168201915b505050505090806002015490806003018054610cc990611e22565b80601f0160208091040260200160405190810160405280929190818152602001828054610cf590611e22565b8015610d425780601f10610d1757610100808354040283529160200191610d42565b820191906000526020600020905b815481529060010190602001808311610d2557829003601f168201915b505050505090806004018054610d5790611e22565b80601f0160208091040260200160405190810160405280929190818152602001828054610d8390611e22565b8015610dd05780601f10610da557610100808354040283529160200191610dd0565b820191906000526020600020905b815481529060010190602001808311610db357829003601f168201915b505050505090806005018054610de590611e22565b80601f0160208091040260200160405190810160405280929190818152602001828054610e1190611e22565b8015610e5e5780601f10610e3357610100808354040283529160200191610e5e565b820191906000526020600020905b815481529060010190602001808311610e4157829003601f168201915b505050505090806006018054610e7390611e22565b80601f0160208091040260200160405190810160405280929190818152602001828054610e9f90611e22565b8015610eec5780601f10610ec157610100808354040283529160200191610eec565b820191906000526020600020905b815481529060010190602001808311610ecf57829003601f168201915b505050505090806007018054610f0190611e22565b80601f0160208091040260200160405190810160405280929190818152602001828054610f2d90611e22565b8015610f7a5780601f10610f4f57610100808354040283529160200191610f7a565b820191906000526020600020905b815481529060010190602001808311610f5d57829003601f168201915b5050505050908060080160009054906101000a900473ffffffffffffffffffffffffffffffffffffffff16905089565b60008054905090565b60606001805480602002602001604051908101604052809291908181526020016000905b8282101561146857838290600052602060002090600902016040518061012001604052908160008201805461100b90611e22565b80601f016020809104026020016040519081016040528092919081815260200182805461103790611e22565b80156110845780601f1061105957610100808354040283529160200191611084565b820191906000526020600020905b81548152906001019060200180831161106757829003601f168201915b5050505050815260200160018201805461109d90611e22565b80601f01602080910402602001604051908101604052809291908181526020018280546110c990611e22565b80156111165780601f106110eb57610100808354040283529160200191611116565b820191906000526020600020905b8154815290600101906020018083116110f957829003601f168201915b505050505081526020016002820154815260200160038201805461113990611e22565b80601f016020809104026020016040519081016040528092919081815260200182805461116590611e22565b80156111b25780601f10611187576101008083540402835291602001916111b2565b820191906000526020600020905b81548152906001019060200180831161119557829003601f168201915b505050505081526020016004820180546111cb90611e22565b80601f01602080910402602001604051908101604052809291908181526020018280546111f790611e22565b80156112445780601f1061121957610100808354040283529160200191611244565b820191906000526020600020905b81548152906001019060200180831161122757829003601f168201915b5050505050815260200160058201805461125d90611e22565b80601f016020809104026020016040519081016040528092919081815260200182805461128990611e22565b80156112d65780601f106112ab576101008083540402835291602001916112d6565b820191906000526020600020905b8154815290600101906020018083116112b957829003601f168201915b505050505081526020016006820180546112ef90611e22565b80601f016020809104026020016040519081016040528092919081815260200182805461131b90611e22565b80156113685780601f1061133d57610100808354040283529160200191611368565b820191906000526020600020905b81548152906001019060200180831161134b57829003601f168201915b5050505050815260200160078201805461138190611e22565b80601f01602080910402602001604051908101604052809291908181526020018280546113ad90611e22565b80156113fa5780601f106113cf576101008083540402835291602001916113fa565b820191906000526020600020905b8154815290600101906020018083116113dd57829003601f168201915b505050505081526020016008820160009054906101000a900473ffffffffffffffffffffffffffffffffffffffff1673ffffffffffffffffffffffffffffffffffffffff1673ffffffffffffffffffffffffffffffffffffffff168152505081526020019060010190610fd7565b50505050905090565b60008173ffffffffffffffffffffffffffffffffffffffff16319050919050565b50805460008255600902906000526020600020908101906114b391906114b6565b50565b5b8082111561156857600080820160006114d0919061156c565b6001820160006114e0919061156c565b60028201600090556003820160006114f8919061156c565b600482016000611508919061156c565b600582016000611518919061156c565b600682016000611528919061156c565b600782016000611538919061156c565b6008820160006101000a81549073ffffffffffffffffffffffffffffffffffffffff0219169055506009016114b7565b5090565b50805461157890611e22565b6000825580601f1061158a57506115a9565b601f0160209004906000526020600020908101906115a891906115ac565b5b50565b5b808211156115c55760008160009055506001016115ad565b5090565b6000604051905090565b600080fd5b600080fd5b600080fd5b600080fd5b6000601f19601f8301169050919050565b7f4e487b7100000000000000000000000000000000000000000000000000000000600052604160045260246000fd5b611630826115e7565b810181811067ffffffffffffffff8211171561164f5761164e6115f8565b5b80604052505050565b60006116626115c9565b905061166e8282611627565b919050565b600067ffffffffffffffff82111561168e5761168d6115f8565b5b611697826115e7565b9050602081019050919050565b82818337600083830152505050565b60006116c66116c184611673565b611658565b9050828152602081018484840111156116e2576116e16115e2565b5b6116ed8482856116a4565b509392505050565b600082601f83011261170a576117096115dd565b5b813561171a8482602086016116b3565b91505092915050565b6000819050919050565b61173681611723565b811461174157600080fd5b50565b6000813590506117538161172d565b92915050565b600073ffffffffffffffffffffffffffffffffffffffff82169050919050565b600061178482611759565b9050919050565b61179481611779565b811461179f57600080fd5b50565b6000813590506117b18161178b565b92915050565b60008060008060008060008060006101208a8c0312156117da576117d96115d3565b5b60008a013567ffffffffffffffff8111156117f8576117f76115d8565b5b6118048c828d016116f5565b99505060208a013567ffffffffffffffff811115611825576118246115d8565b5b6118318c828d016116f5565b98505060406118428c828d01611744565b97505060608a013567ffffffffffffffff811115611863576118626115d8565b5b61186f8c828d016116f5565b96505060808a013567ffffffffffffffff8111156118905761188f6115d8565b5b61189c8c828d016116f5565b95505060a08a013567ffffffffffffffff8111156118bd576118bc6115d8565b5b6118c98c828d016116f5565b94505060c08a013567ffffffffffffffff8111156118ea576118e96115d8565b5b6118f68c828d016116f5565b93505060e08a013567ffffffffffffffff811115611917576119166115d8565b5b6119238c828d016116f5565b9250506101006119358c828d016117a2565b9150509295985092959850929598565b60006020828403121561195b5761195a6115d3565b5b600061196984828501611744565b91505092915050565b600081519050919050565b600082825260208201905092915050565b60005b838110156119ac578082015181840152602081019050611991565b60008484015250505050565b60006119c382611972565b6119cd818561197d565b93506119dd81856020860161198e565b6119e6816115e7565b840191505092915050565b6119fa81611723565b82525050565b611a0981611779565b82525050565b6000610120820190508181036000830152611a2a818c6119b8565b90508181036020830152611a3e818b6119b8565b9050611a4d604083018a6119f1565b8181036060830152611a5f81896119b8565b90508181036080830152611a7381886119b8565b905081810360a0830152611a8781876119b8565b905081810360c0830152611a9b81866119b8565b905081810360e0830152611aaf81856119b8565b9050611abf610100830184611a00565b9a9950505050505050505050565b60008060408385031215611ae457611ae36115d3565b5b6000611af285828601611744565b9250506020611b03858286016117a2565b9150509250929050565b6000602082019050611b2260008301846119f1565b92915050565b600081519050919050565b600082825260208201905092915050565b6000819050602082019050919050565b600082825260208201905092915050565b6000611b7082611972565b611b7a8185611b54565b9350611b8a81856020860161198e565b611b93816115e7565b840191505092915050565b611ba781611723565b82525050565b611bb681611779565b82525050565b6000610120830160008301518482036000860152611bda8282611b65565b91505060208301518482036020860152611bf48282611b65565b9150506040830151611c096040860182611b9e565b5060608301518482036060860152611c218282611b65565b91505060808301518482036080860152611c3b8282611b65565b91505060a083015184820360a0860152611c558282611b65565b91505060c083015184820360c0860152611c6f8282611b65565b91505060e083015184820360e0860152611c898282611b65565b915050610100830151611ca0610100860182611bad565b508091505092915050565b6000611cb78383611bbc565b905092915050565b6000602082019050919050565b6000611cd782611b28565b611ce18185611b33565b935083602082028501611cf385611b44565b8060005b85811015611d2f5784840389528151611d108582611cab565b9450611d1b83611cbf565b925060208a01995050600181019050611cf7565b50829750879550505050505092915050565b60006020820190508181036000830152611d5b8184611ccc565b905092915050565b600060208284031215611d7957611d786115d3565b5b6000611d87848285016117a2565b91505092915050565b7f4e487b7100000000000000000000000000000000000000000000000000000000600052601160045260246000fd5b6000611dca82611723565b9150611dd583611723565b9250828201905080821115611ded57611dec611d90565b5b92915050565b7f4e487b7100000000000000000000000000000000000000000000000000000000600052602260045260246000fd5b60006002820490506001821680611e3a57607f821691505b602082108103611e4d57611e4c611df3565b5b50919050565b60008190508160005260206000209050919050565b60006020601f8301049050919050565b600082821b905092915050565b600060088302611eb57fffffffffffffffffffffffffffffffffffffffffffffffffffffffffffffffff82611e78565b611ebf8683611e78565b95508019841693508086168417925050509392505050565b6000819050919050565b6000611efc611ef7611ef284611723565b611ed7565b611723565b9050919050565b6000819050919050565b611f1683611ee1565b611f2a611f2282611f03565b848454611e85565b825550505050565b600090565b611f3f611f32565b611f4a818484611f0d565b505050565b5b81811015611f6e57611f63600082611f37565b600181019050611f50565b5050565b601f821115611fb357611f8481611e53565b611f8d84611e68565b81016020851015611f9c578190505b611fb0611fa885611e68565b830182611f4f565b50505b505050565b600082821c905092915050565b6000611fd660001984600802611fb8565b1980831691505092915050565b6000611fef8383611fc5565b9150826002028217905092915050565b61200882611972565b67ffffffffffffffff811115612021576120206115f8565b5b61202b8254611e22565b612036828285611f72565b600060209050601f8311600181146120695760008415612057578287015190505b6120618582611fe3565b8655506120c9565b601f19841661207786611e53565b60005b8281101561209f5784890151825560018201915060208501945060208101905061207a565b868310156120bc57848901516120b8601f891682611fc5565b8355505b6001600288020188555050505b505050505050565b60006020820190506120e66000830184611a00565b92915050565b6000815190506120fb8161172d565b92915050565b600060208284031215612117576121166115d3565b5b6000612125848285016120ec565b91505092915050565b7f5472616e73616374696f6e204661696c65640000000000000000000000000000600082015250565b600061216460128361197d565b915061216f8261212e565b602082019050919050565b6000602082019050818103600083015261219381612157565b9050919050565b60006060820190506121af6000830186611a00565b6121bc6020830185611a00565b6121c960408301846119f1565b949350505050565b60008115159050919050565b6121e6816121d1565b81146121f157600080fd5b50565b600081519050612203816121dd565b92915050565b60006020828403121561221f5761221e6115d3565b5b600061222d848285016121f4565b91505092915050565b7f4e487b7100000000000000000000000000000000000000000000000000000000600052603260045260246000fd5b600081905092915050565b6000815461227d81611e22565b6122878186612265565b945060018216600081146122a257600181146122b7576122ea565b60ff19831686528115158202860193506122ea565b6122c085611e53565b60005b838110156122e2578154818901526001820191506020810190506122c3565b838801955050505b50505092915050565b60006122ff8284612270565b915081905092915050565b600061231582611723565b915061232083611723565b925082820261232e81611723565b9150828204841483151761234557612344611d90565b5b5092915050565b7f496e73756666696369656e742045746865722073656e74000000000000000000600082015250565b600061238260178361197d565b915061238d8261234c565b602082019050919050565b600060208201905081810360008301526123b181612375565b9050919050565b60006123c382611723565b91507fffffffffffffffffffffffffffffffffffffffffffffffffffffffffffffffff82036123f5576123f4611d90565b5b60018201905091905056fea26469706673582212201d86693a71dc5321cb4ccde5e10445cb541bde17ad8ca7370013eefa5089a83964736f6c63430008120033",
  "linkReferences": {},
  "deployedLinkReferences": {}
}